S01300004D65676150726F6A656B742E73726563B8
S11300000C94FA000C940A010C940A010C940A0151
S11300100C940A010C940A010C940A010C940A0130
S11300200C940A010C940A010C940A010C940A0120
S11300300C940A010C940A010C940A010C940A0110
S11300400C940A010C940A010C940A010C940A0100
S11300500C940A010C940A010C940A010C940A01F0
S11300600C940A010C940A010C940A010C940A01E0
S11300700C940A010C940A010C940A010C940A01D0
S11300800C940A010C940A010C940A010C940A01C0
S11300900C940A010C940A010C940A010C940A01B0
S11300A00C940A010C940A010C940A010C940A01A0
S11300B00C940A010C940A010C940A010C940A0190
S11300C00C940A010C940A010C940A010C940A0180
S11300D00C940A010C940A010C940A010C940A0170
S11300E00C940A010C940A010C940A010C940A0160
S11300F00C940A010C940A010C940A010C940A0150
S11301000C940A010C940A010C940A010C940A013F
S11301100C940A010C940A010C940A010C940A012F
S11301200C940A010C940A010C940A010C940A011F
S11301300C940A010C940A010C940A010C940A010F
S11301400C940A010C940A010C940A010C940A01FF
S11301500C940A010C940A010C940A010C940A01EF
S11301600C940A010C940A010C940A010C940A01DF
S11301700C940A010C940A010C940A010C940A01CF
S11301800C940A010C940A010C940A010C940A01BF
S11301900C940A010C940A010C940A010C940A01AF
S11301A00C940A010C940A010C940A010C940A019F
S11301B00C940A010C940A010C940A010C940A018F
S11301C00C940A010C940A010C940A010C940A017F
S11301D00C940A010C940A010C940A010C940A016F
S11301E00C940A010C940A010C940A010C940A015F
S11301F00C940A0111241FBECFEFCDBFDFE3DEBF95
S113020000E00CBF18BE19BE1ABE1BBE0E940D0131
S11302100C9410010C94000008950E940C01FFCF6F
S1070220F894FFCF7C
S9030000FC
