:100000000C94FA000C940A010C940A010C940A0155
:100010000C940A010C940A010C940A010C940A0134
:100020000C940A010C940A010C940A010C940A0124
:100030000C940A010C940A010C940A010C940A0114
:100040000C940A010C940A010C940A010C940A0104
:100050000C940A010C940A010C940A010C940A01F4
:100060000C940A010C940A010C940A010C940A01E4
:100070000C940A010C940A010C940A010C940A01D4
:100080000C940A010C940A010C940A010C940A01C4
:100090000C940A010C940A010C940A010C940A01B4
:1000A0000C940A010C940A010C940A010C940A01A4
:1000B0000C940A010C940A010C940A010C940A0194
:1000C0000C940A010C940A010C940A010C940A0184
:1000D0000C940A010C940A010C940A010C940A0174
:1000E0000C940A010C940A010C940A010C940A0164
:1000F0000C940A010C940A010C940A010C940A0154
:100100000C940A010C940A010C940A010C940A0143
:100110000C940A010C940A010C940A010C940A0133
:100120000C940A010C940A010C940A010C940A0123
:100130000C940A010C940A010C940A010C940A0113
:100140000C940A010C940A010C940A010C940A0103
:100150000C940A010C940A010C940A010C940A01F3
:100160000C940A010C940A010C940A010C940A01E3
:100170000C940A010C940A010C940A010C940A01D3
:100180000C940A010C940A010C940A010C940A01C3
:100190000C940A010C940A010C940A010C940A01B3
:1001A0000C940A010C940A010C940A010C940A01A3
:1001B0000C940A010C940A010C940A010C940A0193
:1001C0000C940A010C940A010C940A010C940A0183
:1001D0000C940A010C940A010C940A010C940A0173
:1001E0000C940A010C940A010C940A010C940A0163
:1001F0000C940A0111241FBECFEFCDBFDFE3DEBF99
:1002000000E00CBF18BE19BE1ABE1BBE0E941E0124
:100210000C9478010C9400000E945A010895CF9329
:10022000DF93D82FC62F0E9469018D2F0E946F0186
:100230008C2F0E946F01DF91CF910895E0E6F6E0E8
:1002400088E1808B818B828B838B0E940C01C0E6BE
:10025000D6E000E01AE063E083E00E940F018FE443
:1002600093EC0197F1F700C00000888580FD05C080
:10027000F80186A197A180A791A7888581FD07C075
:10028000F80186A197A19695879580A791A7888563
:1002900082FD09C0F80186A197A19695879596954C
:1002A000879580A791A7888583FDD5CFF80110A6F3
:1002B00011A6D1CFE0E4F6E084818061848380815F
:1002C0008F7B80838081806B808382E58093C008F0
:1002D0000895E0E4F6E084818F7E84830895982F6A
:1002E000E0ECF8E08381938392819923ECF7089501
:0402F000F894FFCFB0
:00000001FF
