S01300004D65676150726F6A656B742E73726563B8
S11300000C94FA000C940A010C940A010C940A0151
S11300100C940A010C940A010C940A010C940A0130
S11300200C940A010C940A010C940A010C940A0120
S11300300C940A010C940A010C940A010C940A0110
S11300400C940A010C940A010C940A010C940A0100
S11300500C940A010C940A010C940A010C940A01F0
S11300600C940A010C940A010C940A010C940A01E0
S11300700C940A010C940A010C940A010C940A01D0
S11300800C940A010C940A010C940A010C940A01C0
S11300900C940A010C940A010C940A010C940A01B0
S11300A00C940A010C940A010C940A010C940A01A0
S11300B00C940A010C940A010C940A010C940A0190
S11300C00C940A010C940A010C940A010C940A0180
S11300D00C940A010C940A010C940A010C940A0170
S11300E00C940A010C940A010C940A010C940A0160
S11300F00C940A010C940A010C940A010C940A0150
S11301000C940A010C940A010C940A010C940A013F
S11301100C940A010C940A010C940A010C940A012F
S11301200C940A010C940A010C940A010C940A011F
S11301300C940A010C940A010C940A010C940A010F
S11301400C940A010C940A010C940A010C940A01FF
S11301500C940A010C940A010C940A010C940A01EF
S11301600C940A010C940A010C940A010C940A01DF
S11301700C940A010C940A010C940A010C940A01CF
S11301800C940A010C940A010C940A010C940A01BF
S11301900C940A010C940A010C940A010C940A01AF
S11301A00C940A010C940A010C940A010C940A019F
S11301B00C940A010C940A010C940A010C940A018F
S11301C00C940A010C940A010C940A010C940A017F
S11301D00C940A010C940A010C940A010C940A016F
S11301E00C940A010C940A010C940A010C940A015F
S11301F00C940A0111241FBECFEFCDBFDFE3DEBF95
S113020000E00CBF18BE19BE1ABE1BBE0E94160128
S11302100C9495010C9400000E9458010E946701FF
S1130220E0EAF6E088E0808780830895E0E6F6E07F
S113023088E1808B818B828B838B0E940C01C0E6CA
S1130240D6E0888580FD03C084E60E943A01888553
S113025081FD03C08BE40E943A01888582FD03C0BE
S113026082E30E943A01888583FDEBCF89E10E94F5
S11302703A01E7CFCF93DF93E0E0FBE0C6A1D7A13B
S1130280682F70E084E690E00E9481019B0133278F
S1130290CE01B9010E946D0166A377A386A197A13F
S11302A0B9010E946D0164A775A7DF91CF910895EC
S11302B0E0E4F6E084818061848380818F7B8083A5
S11302C08081806B808382E58093C0080895E0E498
S11302D0F6E084818F7E84830895AA1BBB1B51E1C1
S11302E007C0AA1FBB1FA617B70710F0A61BB70BA2
S11302F0881F991F5A95A9F780959095BC01CD0147
S1130300089597FB072E16F4009407D077FD09D0C3
S11303100E946D0107FC05D03EF4909581959F4F96
S11103200895709561957F4F0895F894FFCF6E
S9030000FC
